:100000000110040000000000C01B0000FFAE000053
:10001000020FB8FFFFFFFFFFFFFFFF0215567E0331
:100020009000EEE06F6005EFF0E4A3F09000EEE0EA
:10003000B4FF02E4FE9000EFE004F0C39E50037FA3
:1000400000229000EF7403F07F012202168CE4F589
:10005000E3439F08439F02FF0FBF0FFC539FF775B9
:10006000BE0EE4F5BFF5B9759276220213487520ED
:10007000FF7521FF12146AE49000FFF0A3F07F01E6
:10008000EF25E02450F8E2FC08E2FD9000FFE025B7
:10009000E02451F9C3E39D19E39C5002EFF0EF25F2
:1000A000E02450F8E2FC08E2FD900100E025E024A5
:1000B00051F9D3E39D19E39C4002EFF00FBF04C058
:1000C0009000FCE0F925E02400F8E2FE08E2FF7869
:1000D00080EEF2FE08EFF2C39405EE9400500BE4BC
:1000E0007884F208F27882F208F29000F0E0FFC320
:1000F0009404400302029E7890E630E03E7894E655
:1001000024FBFD18E634FFFCEF25E02400F8E2FEB6
:1001100008E2C39DEE9C4005E0F521F520E925E0CD
:100120002400F8E2FE08E2C39DEE9C500302022D7B
:1001300089219000F0E0F52002022D7894E624FB5E
:10014000FF18E634FFFE9000F0E0FD25E02400F803
:10015000E2FA08E2C39FEA9E405AED94025007E09B
:10016000F521F520804E9000F0E024FEFF69600A42
:100170009000FCE0F521F52080089000F0E0F521EA
:10018000F5207894E624FBFD18E634FFFC9000FE91
:10019000E0FE25E02400F8E2FA08E2C39DEA9C4074
:1001A00013EF6E6007E0F521F52080089000F0E085
:1001B000F521F5207894E624FBFF18E634FFFE9045
:1001C00000FCE0FD25E02400F8E2FA08E2C39FEA23
:1001D0009E406A9000F0E0FF94025010EDC394023C
:1001E000505B9000FCE0F5218F2080519000F0E002
:1001F000FF24FEFE9000FCE0FD6E6007E0F521F5B7
:100200002080048D218F207894E624FBFD18E634AD
:10021000FFFC9000FEE0FF25E02400F8E2FA08E28F
:10022000C39DEA9C4017EE6F6007E0F521F5208042
:100230000C9000FEE0F5219000F0E0F520E520F4C0
:10024000700302037FE52125E02400F8E2FE08E2C6
:10025000FF7884E2FC08E2FDC3EF9DEE9C5003753D
:1002600020FF7882E2FC08E2FDD3EF9DEE9C401275
:10027000E52125E02400F8E2FF08E27882CFF208C9
:10028000EFF27882E2FE08E2FFC3943CEE94005065
:1002900008E408F208F202037FEF7802CEC313CE1F
:1002A00013D8F9FF7884EEF208EFF202037F900092
:1002B000FCE0FF25E02400F8E2FC08E2C378949615
:1002C000EC1896500302037F8F20E52025E02400E0
:1002D000F8E2FE08E2FF7884E2FC08E2FDC3EF9D4D
:1002E000EE9C50037FFF229000FFE0FD6520705BD5
:1002F000A3E025E02450F8E2FE08E2FFED25E0242B
:1003000050F8E2FC08E2FD121A798E228F23900148
:1003100000E025E02430F8E2FE08E2FF9000FFE074
:1003200025E02430F8E2FC08E2FD121A79AD07ACB2
:1003300006900101E075F002A42523FFE52235F0C7
:10034000FEC3ED9FEC9E50477FFF22E52025E02471
:1003500030F8E2FC08E2FD9000FFE025E02450F8D0
:10036000E2FE08E2D39DEE9C40037FFF2290010154
:10037000E075F002A4FFE52025E02451F8E22FFF0C
:1003800018E235F0FEC3ED9FEC9E50037FFF22AFD5
:100390002022BB010689828A83E0225002E722BB29
:1003A000FE02E32289828A83E49322EF8DF0A4A8DF
:1003B000F0CF8CF0A428CE8DF0A42EFE22BC000B32
:1003C000BE0029EF8DF084FFADF022E4CCF875F08B
:1003D00008EF2FFFEE33FEEC33FCEE9DEC9840056A
:1003E000FCEE9DFE0FD5F0E9E4CEFD22EDF8F5F030
:1003F000EE8420D21CFEADF075F008EF2FFFED3338
:10040000FD4007985006D5F0F222C398FD0FD5F0B5
:10041000EA22E88FF0A4CC8BF0A42CFCE98EF0A4A7
:100420002CFC8AF0EDA42CFCEA8EF0A4CDA8F08B75
:10043000F0A42DCC3825F0FDE98FF0A42CCD35F0BB
:10044000FCEB8EF0A4FEA9F0EB8FF0A4CFC5F02E4C
:10045000CD39FEE43CFCEAA42DCE35F0FDE43CFCB5
:100460002275F008758200EF2FFFEE33FECD33CDFD
:10047000CC33CCC58233C5829BED9AEC99E582984A
:10048000400CF582EE9BFEED9AFDEC99FC0FD5F049
:10049000D6E4CEFBE4CDFAE4CCF9A88222B800C1C0
:1004A000B90059BA002DEC8BF084CFCECDFCE5F02D
:1004B000CBF97818EF2FFFEE33FEED33FDEC33FC74
:1004C000EB33FB10D703994004EB99FB0FD8E5E41D
:1004D000F9FA227818EF2FFFEE33FEED33FDEC33FF
:1004E000FCC933C910D7059BE99A4007EC9BFCE98E
:1004F0009AF90FD8E0E4C9FAE4CCFB2275F010EFCA
:100500002FFFEE33FEED33FDCC33CCC833C810D70C
:10051000079BEC9AE899400AED9BFDEC9AFCE89960
:10052000F80FD5F0DAE4CDFBE4CCFAE4C8F922EB1D
:100530009FF5F0EA9E42F0E99D42F0E89C45F022EA
:10054000E8600FECC313FCED13FDEE13FEEF13FF99
:10055000D8F122E8600FEFC333FFEE33FEED33FD39
:10056000EC33FCD8F122E6FC08E6FD08E6FE08E6DE
:10057000FF22E6FB08E6F908E6FA08E6CBF822ECEB
:10058000F608EDF608EEF608EFF622ECF208EDF2CA
:1005900008EEF208EFF222D083D082E493F60874DA
:1005A0000193F608740293F608740393F6740473C7
:1005B000D083D082E493F208740193F2087402931A
:1005C000F208740393F27404738A838982E473E4F7
:1005D000F519F518E51825E025E02486F81205A0A0
:1005E000000000000518E518B404E912181CE4F531
:1005F00018E51825E025E02486F8C000E2FC08E2B2
:10060000FD08E2FE08E2FFE51825E025E02451F8A8
:10061000120562EF2BFFEE3AFEED39FDEC38FCD00F
:100620000012057B0518E518B404C60519E519C3C1
:10063000940540B7E4F518AF19E4FCFDFEC004A929
:1006400005AA06AB07E51825E025E02486F8E2FCBC
:1006500008E2FD08E2FE08E2FFD00012048D8F1DC3
:100660008E1C8D1B8C1AAB1DAA1CA91BA81AC000BE
:10067000E51825E02471F8E6FE08E6FFE4FCFDD06D
:10068000001204028F1D8E1C8D1B8C1A7807120518
:10069000308F1D8E1C8D1B8C1AE47FB87E0BFDFCE9
:1006A000AB1DAA1CA91BA81AD312051F4030E51DBB
:1006B0002448FFE51C34F4FEE51B34FFFDE51A3445
:1006C000FFFCE51825E025E02431F812056FE51858
:1006D00025E02430F8740BF20874B8F2801EE51897
:1006E00025E025E02431F812058700000000E51818
:1006F00025E02430F8E51CF208E51DF2E51825E0B8
:100700002430F8E2FE08E2FFE51825E02450F8EE78
:10071000F208EFF2E51825E02430F8E2FE08E2FFE7
:10072000E4FCFDE51825E025E02460F812057BE5F2
:100730001825E025E02460F8C000E2FC08E2FD088E
:10074000E2FE08E2FF7807120543D00012057BE5C0
:100750001825E02430F8E2FE08E2FFE51825E02441
:1007600040F8EEF208EFF2E51825E02410F8E4F284
:1007700008F2E51825E025E02486F81205A000001F
:100780000000E51825E024B6F8E4F208F20518E5C3
:100790001864046003020627228E1A8F1BE4F51DDD
:1007A000F51EF51FF51C9000F0E0C394FF40089083
:1007B00000EFE06403601EE51C25E024B6F8E4F2D7
:1007C00008F2E51C25E025E02486F81205A00000CB
:1007D00000000208ABE51C25E024C6F582E43400E5
:1007E000F583E0F51DA3E0F51EE51C25E024B7F92F
:1007F000E3700219E3701AE51C25E02430F8E2FEEC
:1008000008E2FFE51C25E024A6F8EEF208EFF280EE
:1008100062E51C25E024A6F8E2FE08E2FFE51C25BF
:10082000E02430F8E2FC08E2FD121A79AC06AD07CC
:10083000E51DC313FEE51E13FFD3ED9FEC9E403371
:10084000E51C25E02430F8E2FE08E2FFE51C25E087
:1008500024A6F8EEF208EFF2E51C25E024B6F8E451
:10086000F208F2E51C25E025E02486F81205A00038
:10087000000000E51C25E02430F8E2FE08E2FFE578
:100880001C25E025E02486F8C000E2FB08E2F90818
:10089000E2FA08E2CBF8E4FCFDEB2FFFEA3EFEEDC6
:1008A00039FDEC38FCD00012057BE51C25E024B6B0
:1008B000F808E22401F218E23400F2051CE51CC33A
:1008C00094045003020796E4F51CE51C25E024B7C8
:1008D000F9C3E3951B19E3951A4002051F051CE5B2
:1008E0001CB404E6E51F64047063F51CE51C25E0F8
:1008F00024B6F8E2FE08E2FF4E604BE4FCFDC004C3
:10090000A905AA06AB07E51C25E025E02486F8E248
:10091000FC08E2FD08E2FE08E2FFD00012048DE5CB
:100920001C25E02440F8EEF208EFF2E51C25E02457
:10093000B6F8E4F208F2E51C25E025E02486F8127A
:1009400005A000000000051CE51CB4049F228F1ABE
:10095000E4F51BE51B25E025E02431F8120556E4FB
:10096000FBFAF9F8C312051F7003020ADFE51A70DB
:100970003CE51B25E025E02431F8C000120556C0F7
:1009800006C007E51B25E02440F8E2FE08E2FFFB75
:10099000AA06E4F9F8D007D006EF2BFFEE3AFEE9FD
:1009A0003DFDE83CFCD00012056F020A56E51AB482
:1009B000013BE51B25E025E02431F8C00012055677
:1009C000C006C007E51B25E02450F8E2FE08E2FF60
:1009D000FBAA06E4F9F8D007D006EF2BFFEE3AFEAB
:1009E000E93DFDE83CFCD00012056F8079E51AB4C2
:1009F000023BE51B25E025E02431F8C00012055636
:100A0000C006C007E51B25E02430F8E2FE08E2FF3F
:100A1000FBAA06E4F9F8D007D006EF2BFFEE3AFE6A
:100A2000E93DFDE83CFCD00012056F8039E51B254F
:100A3000E025E02431F8C000120556C006C007E5E5
:100A40001B25E02440F8E2FE08E2FFFBAA06E4F9D9
:100A5000F8D007D006EF2BFFEE3AFEE93DFDE83C6B
:100A6000FCD00012056FE51B25E025E02431F8C01D
:100A700000120556C3EF94B8FFEE940BFEED940000
:100A8000FDEC9400FCD00012056FE51B25E024402E
:100A9000F8740BF20874B8F2E51B25E02430F87402
:100AA0000BF20874B8F2E51B25E02450F8740BF241
:100AB0000874B8F2E51B25E025E02460F81205A0D3
:100AC00000000BB8E51B25E025E02460F8C000E23B
:100AD000FC08E2FD08E2FE08E2FF7807120543D0B9
:100AE0000012057BE51B25E02410F8E4F208F2056E
:100AF0001BE51B640460030209432285BA1E53BA36
:100B00000F43BA10E4F518E51825E025E02451F864
:100B1000120587000000000518E518B404E97518EF
:100B20000A75ABFF1219B5E4F519E51925E025E0C2
:100B30002451F8C000120556C004C005C006C00705
:100B400074C52519F8E675F003A42493F582E434FE
:100B50001AF583E493FB740193FA740293F9120576
:100B6000B9A804A905AA06AB07D007D006D005D0BE
:100B700004EF2BFFEE3AFEED39FDEC38FCD000120D
:100B8000056F0519E519C39404409FE4F5AB1219EC
:100B9000B5E4F519E51925E025E02451F8C0001267
:100BA0000556C004C005C006C00774C52519F8E67F
:100BB00075F003A42493F582E4341AF583E493FBDF
:100BC000740193FA740293F91205B9A804A905AA4D
:100BD00006AB07D007D006D005D004C3EF9BFFEECD
:100BE0009AFEED99FDEC98FCD00012056F0519E511
:100BF00019C39404409E1518E5186003020B11E414
:100C0000F519E4751D98751C3AF51BF51AAF1DAE64
:100C10001CAD1BAC1A78071205438F1D8E1C8D1B53
:100C20008C1AE51925E025E02451F812056212041A
:100C30008D8F1D8E1C8D1B8C1AE51925E02471F8F3
:100C4000A60608A6070519E519B404B6851EBA223A
:100C50007518FF7519081210CB121295EF64017008
:100C6000767F011218C3AD07AC067880E2FA08E27D
:100C7000FB4A700FED7802CEC313CE13D8F9FDAC4A
:100C8000068036C3EB9405EA94005009ECC313FCCC
:100C9000ED13FD8024C37881E2941418E29400508F
:100CA00009ECC313FCED13FD800FEDAE047802CE0A
:100CB000C313CE13D8F9FDAC06D39000F7E094002F
:100CC0009000F6E094004006EC13FCED13FDAF0538
:100CD000AE041207898003AF19229000EEE0F518E8
:100CE000E51804706F9000FFE025E02450F8E2FE64
:100CF00008E2FFA3E025E02450F8E2FC08E2FD1240
:100D00001A79AC06AD07900101E075F002A4FFD39B
:100D1000ED9FEC95F040109000FBE004F070069021
:100D200000FAE004F08007E49000FAF0A3F07F07F7
:100D30001218C3D39000FBE09F9000FAE09E400899
:100D4000E4F0A3F0FF12093E1217D2E49000F8F08D
:100D5000A3F0802BAF181214E39000F9E004F070B8
:100D6000069000F8E004F07F051218C3D39000F954
:100D7000E09F9000F8E09E40061217D27F0322AF5A
:100D80001922E4F518E51825E025E02451F8C00003
:100D9000120556C006C007E51825E02471F8E6FEE6
:100DA00008E6FFFBAA06E4F9F8D007D00612040211
:100DB000D00012056FE51825E025E02451F8C000A9
:100DC0001205567807120530D00012056FE5182578
:100DD000E025E02451F8120556EC4D4E4F70030209
:100DE0000E84E51825E025E02431F8120556E518B3
:100DF00025E025E02451F8120562C312051F5003B7
:100E00007F0322E51825E025E02431F8120562C0B1
:100E100000E51825E025E02451F8120556D000C35E
:100E2000EF9BF51CEE9AF51BED99F51AEC98F51968
:100E3000E47FFF7EFFFDFCAB1CAA1BA91AA819C307
:100E400012051F40037F0322E51825E02430F8E552
:100E50001BF208E51CF2E51825E02440F8E2FE0844
:100E6000E2FFE51825E02430F8E2FC08E2FDD39F1C
:100E7000EC9E4013ED9FFFEC9EF8E51825E0241052
:100E8000C8F208EFF2801BE51825E02410F8E4F220
:100E900008F2800EE51825E02410F8E4F208F27F4D
:100EA00003220518E51864046003020D757F07220C
:100EB0007518077D0774017E00A818088005C333E4
:100EC000CE33CED8F9FFACACECFBE4EF5B7003D5CE
:100ED00018E3ED601D74017E00A805088005C3338A
:100EE000CE33CED8F9FFACAEECFBE4EF5B70031D64
:100EF00080E0AF187401A807088002C333D8FCF55E
:100F0000AC7401A805088002C333D8FCFFF5AD8F8F
:100F1000AE53AACF85BA2153BA0F43BA10E4F51CD9
:100F2000F51BF51AF5191219B5E4F51874C525184D
:100F3000F8E675F003A42493F582E4341AF583E40B
:100F400093740193FA740293F91205B98F208E1FDE
:100F50008D1E8C1DAB1CAA1BA91AA819C312051F34
:100F6000500C85201C851F1B851E1A851D19051810
:100F7000E518C3940440B5AF1CAE1BAD1AAC19788C
:100F800003120530E51C2FF51CE51B3EF51BE51A89
:100F90003DF51AE5193CF519AF1CAE1BAD1AFC78EE
:100FA000101205308FB3AF1CAE1BAD1AAC19780808
:100FB0001205308FB2851CB143AA308521BA75ACB9
:100FC0000375ADC075AEC022E453C6DFE5C600B5FB
:100FD000C6F675830075820775FD0DE4E5FEF4FF26
:100FE00075830075820675FD0DE4E5FEB50704F511
:100FF0009E8003759E0078100000D8FC53C6E04325
:10100000C60843C68075960475970475830075827B
:101010000375FD0DE4E5FEF4FF758300758202752E
:10102000FD0DE4E5FEB50704F59580037595837520
:10103000BE0E5392FE9001007F007E02E4F0A3DF1B
:10104000FCDEFA78007F00E4F208DFFC78FFE4F6CB
:10105000D8FD7581D00210860200000211C0E49311
:10106000A3F8E493A34003F68001F208DFF480299B
:10107000E493A3F85407240CC8C333C4540F44208A
:10108000C8834004F456800146F6DFE4800B010279
:10109000040810204080901735E47E019360BCA3C3
:1010A000FF543F30E509541FFEE493A360010ECFC7
:1010B00054C025E060A840B8E493A3FAE493A3F8F1
:1010C000E493A3C8C582C8CAC583CAF0A3C8C582B1
:1010D000C8CAC583CADFE9DEE780BE7810E2FE0831
:1010E000E2FFE4FCFD7B64FAF9F8120402C006C0DA
:1010F000079000C6E0FEA3E0FFFBAA06E4F9F8D0E3
:1011000007D00612048D8E1B8F1C751A01E51A2557
:10111000E02410F8E2FE08E2FFE4FCFD7B64FAF94B
:10112000F8120402C006C007E51A25E024C6F582BD
:10113000E43400F583E0FEA3E0FFFBAA06E4F9F83F
:10114000D007D00612048D8E1D8F1ED3E51C951E70
:10115000E51B951D4006851D1B851E1C051AE51AFD
:10116000B404AAE4F51AE51A25E02410F8E2FE0812
:10117000E2FFE4FCFD7B64FAF9F8120402C006C049
:1011800007E51A25E024C6F582E43400F583E0FE85
:10119000A3E0FFFBAA06E4F9F8D007D00612048DFD
:1011A0008E1D8F1EC3E51E951CFFE51D951BF8E5E2
:1011B0001A25E02400C8F208EFF2E51A25E0242001
:1011C000F8E51DF208E51EF2051AE51AB4049722A7
:1011D00012003E7D01E4FF1218587F01121A217F90
:1011E00001121A40121AD6121B961219DB1216E2BD
:1011F00012188E12192AD2AF752F01E52F24FD6027
:101200001C14602424FE60291460301460602407DC
:10121000705F121787121627752F048054121787D4
:10122000121627752F048049E53070FC752F068053
:1012300040120D728F2F121AC18036D39000F7E042
:1012400094009000F6E09400400CA3E024FFF0909E
:1012500000F6E034FFF09000F3E004F07006900038
:10126000F2E004F0120C408F2F1213ED8003752F63
:1012700004900102E06025E4788CF6FF121AD6E4AF
:10128000900102F0F52BF52C00052CE52C700205E1
:101290002B64A0452B70F17F01121AD6D2D81215FB
:1012A000C10211EB2212005E8F1AE51AC39404509A
:1012B0000302133BE4F51BE51B25E02430F8E2FEB6
:1012C00008E2FFE48F1F8E1EF51DF51CAD1DAC1C42
:1012D00078071205438F1F8E1E8D1D8C1CE51B2564
:1012E000E025E02460F8E2FC08E2FD08E2FE08E206
:1012F000FFE47B3FFAF9F8120402EF251FFFEE35F9
:101300001EFEED351DFDEC351CFC7806120530E5A2
:101310001B25E025E02460F812057BE51B25E02570
:10132000E02460F8E2FC08E2FD08E2FE08E2FF7853
:1013300007120530E51B25E02450F8EEF208EFF225
:10134000051BE51B640460030212A7AF1A12000E0E
:10135000EF7002FF227F0122C0E0C0F0C083C08294
:10136000C0D075D008C2CF30CB4920CC467881A6FA
:10137000CEE6FF54F0FEBE8031EF540F75F003A4AB
:10138000245BF582E43419F583E493FB740193FA4A
:101390007402938B288A29F52A052AE52A7002050A
:1013A0002914F9120382F5CE80097881E62527F801
:1013B000E6F5CE30CC2A7881E654F0FFBF8015AB3D
:1013C00028052AE52AAA297002052914F9120382A0
:1013D000F5CE801A788106E62527F8E6F5CE800E50
:1013E00020CB0B7881E62482F8A6CE788106788C13
:1013F0007601D0D0D082D083D0F0D0E032E4F5189E
:10140000E51875F006A42495FFE51825E02420F8DA
:10141000E2FC08E2FD121AABE51875F006A4249769
:10142000FFE51825E02410F8E2FC08E2FD121AABF3
:10143000E51875F006A42499FBC003E51825E024FF
:1014400030F8E2FE08E2FFE4FCFDE51825E025E0C7
:101450002431F8120562EF2BFFEE3AFEED39FDEC78
:1014600038FC7804120530AD07AC06D007121AAB71
:101470000518E518C394044087227800E2FE08E2CC
:10148000FDAC068E24F525E4FFF9FEEE25E02400F0
:10149000F8E2FA08E2FBD39DEA9C4006AF06AC02F4
:1014A000AD03EE25E02400F8E2FA08E2FBC395253F
:1014B000EA95245006A9068A248B250EBE04CC90FA
:1014C00000FCEFF0A3E9F0E4FCFDFE9000FCE06E10
:1014D0006017EE25E02400F8E2FA08E2FBD39DEA6B
:1014E0009C4006AF06AC02AD030EBE04DE9000FECB
:1014F000EFF022EFC3940450139000F0E06F600C03
:10150000E49000F8F0A3F09000F0EFF09000F0E02D
:10151000FFA3E06F604F7890E630E021EFC39404C2
:10152000503D900102E0703704F09000F0E024D6C6
:10153000F582E43400F583E0788DF680229000F0A7
:10154000E0C394025019900102E0701304F090007F
:10155000F0E024D6F582E43400F583E0788DF6904F
:1015600000F0E0A3F022C0E0C0F0C083C082C0D091
:1015700075D000C000C004C005C006C007C28D758C
:101580008CD8758AF0052EE52E7002052DAE2DFF44
:101590007C007D641203ADED4C70219000F2E0FE02
:1015A000A3E0FFD3940AEE94004006A3EEF0A3EF6D
:1015B000F09000F2E4F0A3F0F52DF52ED007D00660
:1015C000D005D004D000D0D0D082D083D0F0D0E0ED
:1015D000327882E6FF605FE4F6EF24E0601E24F0DC
:1015E000602024F0602A24F0603424F0603724F076
:1015F000603A24607040E4FF121A21227F01121A1F
:101600002122789376000876147890E64410F6222A
:101610007893760008763C7890E654EFF62278903E
:10162000E64401F6227890E654FEF6221218F77886
:1016300091A60608A60722121A5E9000EE74FFF02B
:101640009000F0F0A3F0E49000EFF09000F8F0A329
:10165000F07884F208F2A3F0A3F0900101F0FFEF1C
:1016600025E024C6F582E43400F583E0A3E0FE9093
:101670000101E02EF00FBF04E6900101E075F028B3
:1016800084F0120AEB120EA01205BF7F0A1218C3D3
:101690009000F6EEF0A3EFF0121AC122C0E0C0F005
:1016A000C083C082C0D075D01053B9FD75260074B8
:1016B000C52526F8E675F003A42493F582E4341AD0
:1016C000F583E493740193FA740293F91205B9E572
:1016D0002625E025E02451F812056F0526E526C3EE
:1016E000940440CB753000D0D0D082D083D0F0D0DD
:1016F000E032788D760812198BBFFF0508760480DA
:1017000004788E76FFE4788FF608F674FF08F60802
:10171000F608760008763CE4FFEF75F006A4249501
:10172000F8E4F608F6EF75F006A42497F8E4F60856
:10173000F6EF75F006A42499F8E4F608F60FBF0456
:10174000D875278D2208C5030604050207FFFF048C
:10175000CD00000000603D00C6003C003C002800B9
:10176000280046004600460046010203040506071D
:101770000800000000000000000000000000000061
:1017800000FF00FFFF00000000000000000000005C
:1017900000000000000000E4FFFE74C52EF8E69093
:1017A0001BA39342070EBE04F1EF42D4EF42F4EFC5
:1017B00042E4EFF452DC75BA0C43BA2043B920532B
:1017C000B9BF8FB4E4F5B375B22775B11075BBFA24
:1017D00075A95075AA3BF5AB75AC0375ADC075AE78
:1017E000C022E49000F8F0A3F09000F074FFF0A3A2
:1017F000E0FFF460307890E630E016EFC3940450D8
:1018000024900102E0701E04F0788DE64408F68012
:1018100014EFC39402500E900102E0700804F078B7
:101820008DE64408F69000F174FFF0221219B5E439
:10183000F51E74C5251EF8E675F003A42493F58201
:10184000E4341AF583E493740193FA740293F91261
:1018500005B9E51E25E025E02451F812056F051EA7
:10186000E51EC3940440CB22E4FE7C0474C52CF82E
:10187000E6901BA39342060CBC06F1EF6005EE4216
:10188000D48004EEF452D4EEF4FF52F4EE42E4EDD0
:101890006005EE42EC8003EF52ECEF52DC227E005A
:1018A0007FDEE4FDED25E02401F582E4341AF583C2
:1018B000E493F4601DED25E02402F582E4341AF58A
:1018C00083E493FCEF2DF582E43EF583ECF00DBD4F
:1018D00010D222751A00751BDE7B017A00BFFF054E
:1018E0007F017E0022E51B2FF582E4351AF583E0A7
:1018F0007A00FB9000F4E0FCA3E0FDAF037E001251
:10190000039BAA06AB0722E4F518F519FFFEFD7C40
:1019100020ED1DAA0470011C4A601E0519E519AAD4
:10192000187002051814F5828A83E493F4FBE4F43A
:10193000FAEB2FFFEA3EFE80D82243F80875CDC0AF
:1019400043CC8053CCBF43CC2043CC1043CC045376
:10195000CCFD43CB0243CB0153CBBF43E80853E557
:10196000FC43E30243F50343900322FE0030FE00F4
:1019700038FE0040FE0048FE0050FE005800007196
:101980000000790100EE0100F2FE0000FE0008FEFA
:101990000020FE0028FE0010FE0018E4F518F519DE
:1019A000FFFD7C20ED1DAA0470011C4A601605197C
:1019B000E519AA187002051814F5828A83E493F4D5
:1019C0002FFF80E02275BF0F000000000000000024
:1019D00000000000000000000000D2D853B9FD4311
:1019E000B901E5B930E1FBE4F5BF22438901C28DBD
:1019F000D2A953B8FDE4F52DF52E9000F2F0A3F036
:101A0000A3F0A37464F0758CD8758AF0D28CD2AF31
:101A10002200020101020103010401050A06050773
:101A200002080A09020A020B280C3C0D030E01FFF2
:101A300001E4FE7D0474C52DF8E6901BA3934206D5
:101A40000DBD06F1EF6004EE428022EEF4528022DA
:101A5000EF600543D504800353D5FB53F5FB53E5F5
:101A6000FB43E304E4900102F0900104F02253BA36
:101A7000FEE5B920E004E5306005E5B930E1FBE4BE
:101A8000F5BF53B9FE53B9FD22AB07AA06D3EB9DB0
:101A9000EA9C4007EB9DFFEA9CFE22C3ED9BFFEC16
:101AA0009AFE22FF1AFEFF1B11FF1B24FF1B37FFAC
:101AB0001B4AFF1B5DFF1B70FF1B83AB07AF04AE10
:101AC0000553E8F7A803A607E804F8A60643E808C4
:101AD0002275BF0F43B92053B9FD43BA01753001D8
:101AE00043B901D2D822EF6009D29290010374FF6A
:101AF000F022C292E4900103F022ED6008EF901B07
:101B0000A393428022EF901BA393F452802253B9F7
:101B1000EF78CEA6B708A6B608A6B578CD120556BA
:101B20002253B9EF78CEA6EB08A6EA08A6E978CD4D
:101B30001205562253B9EF78CEA6F308A6F208A6EE
:101B4000F178CD1205562253B9EF78CEA6FB08A640
:101B5000FA08A6F978CD1205562243B91078CEA618
:101B6000B708A6B608A6B578CD1205562243B91017
:101B700078CEA6EB08A6EA08A6E978CD120556228B
:101B800043B91078CEA6F308A6F208A6F178CD12D4
:101B900005562243B91078CEA6FB08A6FA08A6F986
:101BA00078CD12055622C2DA53D80F43D8D0D2D8F6
:101BB000D2D9220102040810204080F7FFFFFFFF66
:101BC000FFFFFFFFFFFFFFFFFFFFFFFFFFFFFFFF25
:00000001FF
